:020000040000FA
:10000000781B00200D0200001502000017020000FE
:10001000190200001B0200001D0200000000000089
:100020000000000000000000000000001F020000AF
:100030002102000000000000AD010000C702000026
:10004000270200002702000027020000270200000C
:1000500027020000270200002702000027020000FC
:1000600027020000270200002702000027020000EC
:1000700027020000270200002702000027020000DC
:1000800027020000270200002702000027020000CC
:100090000000000000000000000000000000000060
:1000A0000000000000000000000000000000000050
:1000B00027020000000000002702000027020000C5
:1000C00000F002F800F03AF80AA090E8000C824430
:1000D0008344AAF10107DA4501D100F02FF8AFF20D
:1000E000090EBAE80F0013F0010F18BFFB1A43F016
:1000F00001031847C00B0000E00B0000103A24BFBA
:1001000078C878C1FAD8520724BF30C830C144BF7C
:1001100004680C60704700000023002400250026BE
:10012000103A28BF78C1FBD8520728BF30C148BF5A
:100130000B6070471FB51FBD10B510BD00F089F8EA
:100140001146FFF7F7FF00F063F900F0A7F803B4DA
:10015000FFF7F2FF03BC00F0AFF80000264908608B
:1001600026494FF00000086025494FF00100086063
:1001700024484FF47F01D0F8002041EA02010160D9
:1001800021484FF08051016061B662B61C4A136885
:10019000012B04D04FF001031360184A1060164A77
:1001A000116019484FF0805101607047EFF31082E1
:1001B00072B61348016891B14FF0000101600F4819
:1001C000016829B1EFF3098121E9F00F00680160AE
:1001D000094909680968B1E8F00F81F3098882F3D9
:1001E00010884EF0040E7047EFF3108072B670471F
:1001F00080F31088704700000C00002008000020E9
:100200000400002020ED00E004ED00E009488047F4
:1002100009480047FEE7FEE7FEE7FEE7FEE7FEE7E8
:10022000FEE7FEE7FEE7FEE704480549054A064B00
:1002300070470000D9020000C1000000780B0020C8
:10024000781B00207817002078170020704770472F
:100250007047754600F02CF8AE46050069465346D7
:1002600020F00700854618B020B5FFF7DDFFBDE898
:1002700020404FF000064FF000074FF000084FF00D
:10028000000B21F00701AC46ACE8C009ACE8C0099E
:10029000ACE8C009ACE8C0098D46704710B504460B
:1002A000AFF300802046BDE81040FFF750BF0000CC
:1002B00000487047140B002001491820ABBEFEE730
:1002C00026000200704710B500F048F900F05CFB12
:1002D00000F04CF910BD00000348044908600448D0
:1002E00004490860704700000000000008ED00E0CD
:1002F00040787D0150000020014609B90020704778
:10030000C8B220B1C8B20E4A105C401CF7E701F435
:100310007F4028B10A48C1F30722805C0930EEE72C
:1003200001F47F0028B10648C1F30742805C113018
:10033000E5E7034800EB116000781930DFE70000C3
:10034000B40B00002DE9F04704460E4617469846C8
:10035000DDF8209084F80990FE206072E661276243
:100360000020A062C4F82480002506E004F11401F6
:1003700001EBC50000F002F96D1C012DF6DBBDE8B4
:10038000F08710B50246002001460EE002F114038A
:1003900003EBC100D0E900342360D0E9004363607F
:1003A0004060006000BF481C01460129EEDB10BD23
:1003B0000BE0012005490870022000F0F9F9002047
:1003C00002490870022000F0F3F9F2E70000002073
:1003D0000BE0012005490870142000F0E9F9002025
:1003E00002490870142000F0E3F9F2E70100002050
:1003F0000BE0012005490870642000F0D9F90020C5
:1004000002490870642000F0D3F9F2E702000020EE
:100410003EB5FFF7E9FE2F4800686422B0FBF2F119
:10042000481EB0F1807F00D31BE0481E4FF0E02251
:10043000506150170722002804DB53071C0E264B7F
:100440001C5406E053071D0E244B00F00F04241F1C
:100450001D5500BF00204FF0E02290610720106181
:1004600000BF00F097F900F05FF900F0B1F9022049
:1004700001021B4A0023CDE900210290194A1AA16A
:100480001B4800F0C1F91A4800F034FA03204FF479
:100490000071184A0023CDE900210290164A17A1E5
:1004A000184800F0B1F9174800F024FA0420C101FF
:1004B000154A0023CDE900210290144A14A11648E0
:1004C00000F0A2F9144800F015FA00F04BF90020F2
:1004D0003EBD00005000002000E400E018ED00E008
:1004E000A4010020B1030000666C6167315F7400F5
:1004F00054000020A4030020D1030000666C616753
:10050000325F7400C4000020A4050020F103000045
:10051000666C6167335F740034010020F0B50346F8
:100520000C461546281D20F00700403801460022E1
:1005300003E0094E41F82260521C102AF9D30C62E4
:1005400000274F628F62CF620F634F638B634FF060
:100550008077CF63F0BD0000EFBEADDE10B5FFF7D2
:1005600043FE04462046FFF743FE10BD10B5FFF7DB
:100570003BFE04462046FFF73BFE10BD4060006096
:1005800070470268516002680A6001604860704705
:10059000D0E900121160D0E9002151604060006094
:1005A00070470000024600210AE0074800EB0110F6
:1005B0000078904203D1044800EB01107047491CB9
:1005C0000B29F2DB0020F9E71C0000202DE9F041A7
:1005D00004460D4616462846FFF7E4FF074645F059
:1005E0008000207208223146204600F083F8FFF791
:1005F000FBFD8046381D04F10C0102685160026861
:100600000A600160486000BF4046FFF7F1FDBDE8A9
:10061000F08100002DE9F041FFF7E6FD07461148A3
:100620000068FFF769FE451E0F4850F83500A0F13D
:1006300014040E48006884420ED00D490D700B481A
:100640000668046004F11C0106F11C00FFF79EFD22
:100650003846FFF7CDFD02E03846FFF7C9FDBDE89B
:10066000F081000010000020A407002018000020E6
:100670001400002070B50446FFF7B6FD05460120C2
:1006800084F8400094F834200A4B03EBC20004F1D4
:1006900014014268116042684A600860416000BF0E
:1006A0000549A06B09680843034908602846FFF71D
:1006B0009FFD70BDA40700201000002070B5044607
:1006C000FFF792FD054604F11400D0E90012116015
:1006D000D0E9002151604060006000BF0448A16B78
:1006E00000688843024908602846FFF781FD70BD15
:1006F0001000002070B503469AB118460C4600BFA2
:10070000267800F8016B3EB902E0002500F8015B95
:10071000551E2A1EF9D102E0551E2A1EF0D100BF37
:1007200000BF184670BD00000020014607E0094ADE
:1007300002EBC1004060006000BF481C0146202958
:10074000F5DB1F20044A10700020044A1060044AA0
:1007500010607047A407002014000020180000203B
:100760001000002070B508480068FFF7C5FD451E61
:10077000064850F83500A0F114040548046004F15F
:100780001C00FFF7EBFC70BD10000020A407002048
:100790001800002010B5002405E0044901EBC40056
:1007A000FFF7ECFE641C082CF7D310BD44000020BA
:1007B00010B50446204600F081F810BD00BF04E0EB
:1007C00002490968491C014A1160F9E73C00002010
:1007D0000EB51F204FF40071064A0023CDE9002119
:1007E0000290054A05A1074800F00EF8054800F000
:1007F00081F80EBD14090020BD07000069646C6516
:100800005F740000A40800202DE9FC4704460D4653
:1008100016461F46DDE90A9ADDF830802A46002197
:100820002046FFF7D3FE04F114004060006000BFD3
:1008300026626762C4F82890C4F82CA0D4E90A3C68
:1008400063441A1FD4E90801FFF768FEE06184F8E9
:10085000358084F834800020A063E06384F8400091
:1008600000902346044A2146019004F1440000F020
:10087000F5F80020BDE8FC875B09000070B5044670
:1008800094F8400000F00F00022802D04FF0FF3033
:1008900070BDFFF7A9FC054604F11400FFF778FED0
:1008A0002846FFF7A5FC2046FFF7E4FE0020EFE70F
:1008B00001480068704700001800002031B5FFF7BC
:1008C00093FC05460A480468204600F029F86A4669
:1008D000002104F1440000F0A5F804F1440000F008
:1008E000D5F82846FFF784FCFFF794FE002038BDBA
:1008F0001800002010B50446343460782070217848
:1009000001208840606002202073343C2046FFF7BD
:10091000B5FFFFF7CDFF08B1FFF77CFE002010BD4B
:1009200070B5044694F8400000F00F00012802D092
:100930004FF0FF3070BDFFF757FC0546022084F8EA
:1009400040002046FFF7BAFE04F1440000F01AF917
:100950002846FFF74DFC0020ECE770B5044625461D
:100960006FF00100E86305F11400FFF711FE28465F
:10097000FFF780FEFFF74EFE70BD000001480068E3
:10098000704700004000002010B504480068401C7B
:100990000249086000F004F810BD0000400000208B
:1009A00070B5FFF7EBFF0546FFF71EFC064628E093
:1009B0001B480068A0F11404A06A281A6FF00041D7
:1009C00088421DD22046FFF7DCFCD4E90710884797
:1009D000FFF7D4FF0546607A00F0020058B1607A54
:1009E00000F0010038B1607A20F00100607220460A
:1009F00000F04CF805E0607A20F00100607200E041
:100A000008E007480168814201D1012100E000218E
:100A10000029CDD000BF3046FFF7EAFB70BD0000D3
:100A200044000020034649B1012904D0022908D01E
:100A3000032910D10AE0586A10600CE0106858626F
:100A400009E0587A20F00200587204E0587A40F029
:100A50000200587200BF00BF002070472DE9F84324
:100A600007460C4615461E46DDE90889224609213F
:100A70003846FFF7ABFD4346324629463846CDF8A7
:100A80000090FFF75FFCBDE8F88300002DE9F84314
:100A900005460024FFF7A8FB80462846FFF771FCB7
:100AA000687A20F0010068724046FFF7A1FBFFF76B
:100AB00065FF696A0844A862FFF796FB80462F4FDE
:100AC000009700BF2AE019E05DF824201168142285
:100AD00002EBC402881A826AAB6AD21A00D108E01B
:100AE000826AAB6AD21A6FF000439A4200D20CE0DD
:100AF00000BF5DF8240000684DF824005DF8240074
:100B000007EBC40149688842DED100BF2CB15DF813
:100B100024000830611C4DF82100641C002CD2D048
:100B200017480068401C164908600846066805F129
:100B300014010098FFF725FD022412E006F00300DF
:100B400060B9C4F1010305F1140202EBC301C4F161
:100B500001025DF82200FFF714FD00E003E0B60893
:100B6000641C012CEAD900BF687A40F00100687269
:100B70004046FFF73DFB0020BDE8F883440000201D
:100B80004C00002070B50446607A00F0010010B9F6
:100B90004FF0FF3070BDFFF727FB05462046FFF7FB
:100BA000F0FB2846FFF724FB607A20F0010060721A
:100BB0000020EFE700000100020001000300010037
:100BC0000200010004000100020001000300010016
:100BD0000200010005000100020001000300010005
:100BE00002000100040001000200010003000100F6
:100BF00002000100060001000200010003000100E4
:100C000002000100040001000200010003000100D5
:100C100002000100050001000200010003000100C4
:100C200002000100040001000200010003000100B5
:100C300002000100070001000200010003000100A2
:100C40000200010004000100020001000300010095
:100C50000200010005000100020001000300010084
:100C60000200010004000100020001000300010075
:100C70000200010006000100020001000300010063
:100C80000200010004000100020001000300010055
:100C90000200010005000100020001000300010044
:100CA0000200010004000100020001000300010035
:100CB00002000100D40C00000000002054000000DD
:100CC000FC000000280D000054000020241B000040
:100CD00018010000000000000000000000000000FB
:100CE0000000000000000000000000000000000004
:100CF0000000000020000020200000207000000004
:100D000000000000000000000000000000000000E3
:100D100000000000000000000000000000000000D3
:080D20000000000040787D0195
:04000005000000C136
:00000001FF
