:020000040000FA
:10000000401800200D020000150200001702000039
:10001000190200001B0200001D0200000000000089
:100020000000000000000000000000001F020000AF
:100030002102000000000000AD010000C702000026
:10004000270200002702000027020000270200000C
:1000500027020000270200002702000027020000FC
:1000600027020000270200002702000027020000EC
:1000700027020000270200002702000027020000DC
:1000800027020000270200002702000027020000CC
:100090000000000000000000000000000000000060
:1000A0000000000000000000000000000000000050
:1000B00027020000000000002702000027020000C5
:1000C00000F002F800F03AF80AA090E8000C824430
:1000D0008344AAF10107DA4501D100F02FF8AFF20D
:1000E000090EBAE80F0013F0010F18BFFB1A43F016
:1000F000010318473806000058060000103A24BFD4
:1001000078C878C1FAD8520724BF30C830C144BF7C
:1001100004680C60704700000023002400250026BE
:10012000103A28BF78C1FBD8520728BF30C148BF5A
:100130000B6070471FB51FBD10B510BD00F089F8EA
:100140001146FFF7F7FF00F0F7F800F0A7F803B447
:10015000FFF7F2FF03BC00F0AFF80000264908608B
:1001600026494FF00000086025494FF00100086063
:1001700024484FF47F01D0F8002041EA02010160D9
:1001800021484FF08051016061B662B61C4A136885
:10019000012B04D04FF001031360184A1060164A77
:1001A000116019484FF0805101607047EFF31082E1
:1001B00072B61348016891B14FF0000101600F4819
:1001C000016829B1EFF3098121E9F00F00680160AE
:1001D000094909680968B1E8F00F81F3098882F3D9
:1001E00010884EF0040E7047EFF3108072B670471F
:1001F00080F31088704700000C00002008000020E9
:100200000400002020ED00E004ED00E009488047F4
:1002100009480047FEE7FEE7FEE7FEE7FEE7FEE7E8
:10022000FEE7FEE7FEE7FEE704480549054A064B00
:1002300070470000D9020000C10000004008002003
:1002400040180020401400204014002070477047E0
:100250007047754600F02CF8AE46050069465346D7
:1002600020F00700854618B020B5FFF7DDFFBDE898
:1002700020404FF000064FF000074FF000084FF00D
:10028000000B21F00701AC46ACE8C009ACE8C0099E
:10029000ACE8C009ACE8C0098D46704710B504460B
:1002A000AFF300802046BDE81040FFF750BF0000CC
:1002B00000487047E007002001491820ABBEFEE768
:1002C00026000200704710B500F0C4F800F012FAE2
:1002D00000F0D0F810BD000003480449086004484D
:1002E00004490860704700000000000008ED00E0CD
:1002F00040787D01400000200BE001200549087096
:10030000022000F09BF9002002490870022000F052
:1003100095F9F2E7000000200BE001200549087084
:10032000022000F08BF9002002490870022000F042
:1003300085F9F2E7010000207CB5FFF755FF27485B
:1003400000686422B0FBF2F1481EB0F1807F00D358
:100350001BE0481E4FF0E022506150170722002892
:1003600004DB53071C0E1E4B1C5406E053071D0EE6
:100370001C4B00F00F04241F1D5500BF00204FF040
:10038000E02290610720106100BF00F031F900F019
:1003900069F94FF4007014490023144ACDE90010A4
:1003A00013A1154800F082F913491431134800F0E5
:1003B00071F84FF4007012490023124ACDE9001081
:1003C00011A1134800F072F9114914310B4808309B
:1003D00000F060F800F022F900207CBD4000002011
:1003E00000E400E018ED00E0AC000020F90200009D
:1003F000666C6167315F740044000020AC0400202B
:10040000AC02002019030000666C6167325F740063
:1004100078000020F0B503460C461546281D20F054
:10042000070040380146002203E0094E41F82260EF
:10043000521C102AF9D30C6200274F628F62CF62E0
:100440000F634F638B634FF08077CF63F0BD000085
:10045000EFBEADDE10B5FFF7C7FE044604480078D6
:10046000401C034908702046FFF7C2FE10BD000083
:100470003C00002010B5FFF7B7FE044604480078A2
:10048000401E034908702046FFF7B2FE10BD000071
:100490003C0000204268116042684A600860416088
:1004A00070470000024600210AE0074800EB0110F7
:1004B0000078904203D1044800EB01107047491CBA
:1004C0000B29F2DB0020F9E7140000202DE9F041B0
:1004D00004460D4616462846FFF7E4FF074645F05A
:1004E0008000207208223146204600F067F8FFF7AE
:1004F0007BFE8046381D04F10C01026851600268E1
:100500000A600160486000BF4046FFF771FEBDE829
:10051000F081000070B5254800682549884210D157
:100520002448006B20B921480568224C046034E05F
:100530002148006B20B91D4805681F4C04602CE061
:1005400070BD1A4800681B49884210D11A48006BD8
:1005500020B916480568184C04601EE01548006B69
:1005600020B112480568124C046016E0E8E70F4815
:1005700000681149884210D10E48006B20B90B4821
:1005800005680C4C046008E00B48006B20B107487C
:100590000568074C046000E0D2E704F11C0105F196
:1005A0001C00FFF7F3FD00BFCAE7000010000020A9
:1005B000AC050020440000207800002070B5034600
:1005C0009AB118460C4600BF267800F8016B3EB978
:1005D00002E0002500F8015B551E2A1EF9D102E059
:1005E000551E2A1EF0D100BF00BF184670BD000086
:1005F0000020014607E0074A02EBC10040600060AE
:1006000000BF481C01462029F5DB0020024A10608B
:1006100070470000AC0400201000002010B5054811
:100620000068A0F114040448046004F11C00FFF702
:1006300095FD10BDAC0400201000002070B50446EC
:10064000024805682C63FFF765FF70BD10000020AD
:1006500000BF04E002490968491C014A1160F9E73A
:10066000340000201CB54FF400700A4900230A4AE8
:10067000CDE9001009A10B4800F018F80A49094813
:1006800014304A6810604A6842600160486000BFE8
:100690001CBD0000E00500205106000069646C6587
:1006A0005F740000AC050020A40500202DE9F04790
:1006B00004460D4616461F46DDE908892A460021F4
:1006C0002046FFF703FF04F114004060006000BF04
:1006D00026626762C4F82880C4F82C90D4E90A3CEA
:1006E00063441A1FD4E90801FFF794FEE06100207B
:1006F000BDE8F08770B50B480068401C09490860E8
:1007000000250AE0084850F83500A0F11404206BD9
:1007100010B1206B401E20636D1C202DF2D3FFF71B
:10072000F9FE70BD38000020AC0400204C0700002A
:100730000000002044000000FC00000090070000C2
:1007400044000020FC170000180100000000000019
:100750000000000000000000000000000000000099
:1007600000000000180000201800002034000000E5
:100770000000000000000000000000000000000079
:1007800000000000000000000000000040787D0133
:04000005000000C136
:00000001FF
