:020000040000FA
:10000000781800200D020000150200001702000001
:10001000190200001B0200001D0200000000000089
:100020000000000000000000000000001F020000AF
:100030002102000000000000AD010000C702000026
:10004000270200002702000027020000270200000C
:1000500027020000270200002702000027020000FC
:1000600027020000270200002702000027020000EC
:1000700027020000270200002702000027020000DC
:1000800027020000270200002702000027020000CC
:100090000000000000000000000000000000000060
:1000A0000000000000000000000000000000000050
:1000B00027020000000000002702000027020000C5
:1000C00000F002F800F03AF80AA090E8000C824430
:1000D0008344AAF10107DA4501D100F02FF8AFF20D
:1000E000090EBAE80F0013F0010F18BFFB1A43F016
:1000F000010318473008000050080000103A24BFE0
:1001000078C878C1FAD8520724BF30C830C144BF7C
:1001100004680C60704700000023002400250026BE
:10012000103A28BF78C1FBD8520728BF30C148BF5A
:100130000B6070471FB51FBD10B510BD00F089F8EA
:100140001146FFF7F7FF00F01DF900F0A7F803B420
:10015000FFF7F2FF03BC00F0AFF80000264908608B
:1001600026494FF00000086025494FF00100086063
:1001700024484FF47F01D0F8002041EA02010160D9
:1001800021484FF08051016061B662B61C4A136885
:10019000012B04D04FF001031360184A1060164A77
:1001A000116019484FF0805101607047EFF31082E1
:1001B00072B61348016891B14FF0000101600F4819
:1001C000016829B1EFF3098121E9F00F00680160AE
:1001D000094909680968B1E8F00F81F3098882F3D9
:1001E00010884EF0040E7047EFF3108072B670471F
:1001F00080F31088704700000C00002008000020E9
:100200000400002020ED00E004ED00E009488047F4
:1002100009480047FEE7FEE7FEE7FEE7FEE7FEE7E8
:10022000FEE7FEE7FEE7FEE704480549054A064B00
:1002300070470000D9020000C100000078080020CB
:100240007818002078140020781400207047704738
:100250007047754600F02CF8AE46050069465346D7
:1002600020F00700854618B020B5FFF7DDFFBDE898
:1002700020404FF000064FF000074FF000084FF00D
:10028000000B21F00701AC46ACE8C009ACE8C0099E
:10029000ACE8C009ACE8C0098D46704710B504460B
:1002A000AFF300802046BDE81040FFF750BF0000CC
:1002B000004870471408002001491820ABBEFEE733
:1002C00026000200704710B500F0E6F800F084FA4E
:1002D00000F0EAF810BD0000034804490860044833
:1002E00004490860704700000000000008ED00E0CD
:1002F00040787D0144000020014609B90020704784
:10030000C8B220B1C8B20E4A105C401CF7E701F435
:100310007F4028B10A48C1F30722805C0930EEE72C
:1003200001F47F0028B10648C1F30742805C113018
:10033000E5E7034800EB116000781830DFE70000C4
:10034000240800000BE0012005490870022000F09D
:1003500095F9002002490870022000F08FF9F2E7B9
:10036000000000200BE0012005490870022000F089
:1003700085F9002002490870022000F07FF9F2E7B9
:10038000010000203EB5FFF72FFF264800686422D9
:10039000B0FBF2F1481EB0F1807F00D31BE0481E95
:1003A0004FF0E022506150170722002804DB53076A
:1003B0001C0E1D4B1C5406E053071D0E1B4B00F07A
:1003C0000F04241F1D5500BF00204FF0E022906154
:1003D0000720106100BF00F01BF900F075F9022042
:1003E0000102134A0023CDE900210290114A12A113
:1003F000134800F085F9124800F0D8F903204FF4B3
:100400000071104A0023CDE9002102900E4A0FA18D
:10041000104800F075F90F4800F0C8F900F016F91F
:1004200000203EBD4400002000E400E018ED00E0A4
:10043000D000002045030000666C6167315F7400E6
:1004400048000020D002002065030000666C616750
:10045000325F74008C000020F0B503460C46154650
:10046000281D20F0070040380146002203E0094E15
:1004700041F82260521C102AF9D30C6200274F6207
:100480008F62CF620F634F638B634FF08077CF63D0
:10049000F0BD0000EFBEADDE10B5FFF7A5FE0446CF
:1004A0002046FFF7A5FE10BD10B5FFF79DFE0446E0
:1004B0002046FFF79DFE10BD024600210AE00748D6
:1004C00000EB01100078904203D1044800EB0110CA
:1004D0007047491C0B29F2DB0020F9E71C000020C3
:1004E0002DE9F04104460D4616462846FFF7E4FF85
:1004F000074645F08000207208223146204600F071
:100500006DF8FFF771FE8046381D04F10C0102689A
:10051000516002680A600160486000BF4046FFF712
:1005200067FEBDE8F08100002DE9F041FFF75CFEB9
:10053000074614480068FFF7DFFE461E124850F8D1
:100540003600A0F114041148006884420ED010490E
:100550000E700E480568046004F11C0105F11C00D2
:10056000FFF714FE3846FFF743FE02E03846FFF778
:100570003FFE04F11C0105F11C00FFF707FEBDE87A
:10058000F081000010000020D0040020180000209E
:100590001400002070B50446FFF726FE0546012032
:1005A00084F8400094F834200A4B03EBC20004F1B5
:1005B00014014268116042684A600860416000BFEF
:1005C0000549A06B09680843034908602846FFF7FE
:1005D0000FFE70BDD00400201000002070B503464F
:1005E0009AB118460C4600BF267800F8016B3EB958
:1005F00002E0002500F8015B551E2A1EF9D102E039
:10060000551E2A1EF0D100BF00BF184670BD000065
:100610000020014607E0094A02EBC100406000608B
:1006200000BF481C01462029F5DB1F20044A10703A
:100630000020044A1060044A10607047D004002073
:1006400014000020180000201000002070B5084899
:100650000068FFF751FE451E064850F83500A0F12E
:1006600014040548046004F11C00FFF777FD70BD19
:1006700010000020D00400201800002070B50546AE
:10068000FFF7B2FD0646094804682563022084F896
:1006900040000748A16B0068884305490860304660
:1006A000FFF7A6FDFFF740FF70BD00001800002017
:1006B0001000002000BF04E002490968491C014AFB
:1006C0001160F9E73C0000200EB51F204FF40071C7
:1006D000064A0023CDE900210290054A05A10748FA
:1006E00000F00EF8054800F061F80EBD1406002079
:1006F000B506000069646C655F740000D0050020D9
:100700002DE9F04704460D4616461F46DDE9089AD6
:10071000DDF828802A4600212046FFF7E1FE04F19B
:1007200014004060006000BF26626762C4F8289031
:10073000C4F82CA0D4E90A3C63441A1FD4E9080188
:10074000FFF78AFEE06184F8358084F83480002069
:10075000A063E06384F84000BDE8F08770B504460C
:1007600094F8400000F00F00022802D04FF0FF3054
:1007700070BDFFF739FD054604F11400D0E9001201
:100780001160D0E9002151604060006000BF284640
:10079000FFF72EFD2046FFF7FDFE00BFE8E7000053
:1007A00001480068704700001800002010B504469A
:1007B0003434607820702178012088406060022005
:1007C0002073343C2046FFF7C9FFFFF7E9FF08B16B
:1007D000FFF7AAFE10BD000070B50F480068401C6E
:1007E0000D490860002512E00C4850F83500A0F1D2
:1007F0001404206B50B1206B401E2063206B28B97D
:100800000749A06B09680843054908606D1C202D45
:10081000EAD3FFF789FE70BD40000020D00400201D
:100820001000002000000100020001000300010090
:1008300002000100040001000200010003000100A9
:100840000200010005000100020001000300010098
:100850000200010004000100020001000300010089
:100860000200010006000100020001000300010077
:100870000200010004000100020001000300010069
:100880000200010005000100020001000300010058
:100890000200010004000100020001000300010049
:1008A0000200010007000100020001000300010036
:1008B0000200010004000100020001000300010029
:1008C0000200010005000100020001000300010018
:1008D0000200010004000100020001000300010009
:1008E00002000100060001000200010003000100F7
:1008F00002000100040001000200010003000100E9
:1009000002000100050001000200010003000100D7
:1009100002000100040001000200010003000100C8
:10092000020001004409000000000020480000000F
:10093000FC0000008C090000480000203018000076
:10094000180100000000000000000000000000008E
:100950000000000000000000000000000000000097
:1009600000000000200000202000002044000000C3
:100970000000000000000000000000000000000077
:0C098000000000000000000040787D0135
:04000005000000C136
:00000001FF
