:020000040000FA
:10000000B0150020FD0100000502000007020000FD
:10001000090200000B0200000D02000000000000B9
:100020000000000000000000000000000F020000BF
:100030001102000000000000AD01000015020000E8
:10004000170200001702000017020000170200004C
:10005000170200001702000017020000170200003C
:10006000170200001702000017020000170200002C
:10007000170200001702000017020000170200001C
:10008000170200001702000017020000170200000C
:100090000000000000000000000000000000000060
:1000A0000000000000000000000000000000000050
:1000B00017020000000000001702000017020000F5
:1000C00000F002F800F03AF80AA090E8000C824430
:1000D0008344AAF10107DA4501D100F02FF8AFF20D
:1000E000090EBAE80F0013F0010F18BFFB1A43F016
:1000F00001031847B8030000D8030000103A24BFDA
:1001000078C878C1FAD8520724BF30C830C144BF7C
:1001100004680C60704700000023002400250026BE
:10012000103A28BF78C1FBD8520728BF30C148BF5A
:100130000B6070471FB51FBD10B510BD00F081F8F2
:100140001146FFF7F7FF00F0F1F800F09FF803B455
:10015000FFF7F2FF03BC00F0A7F800002249086097
:1001600022494FF00000086021494FF0010008606B
:1001700020484FF47F01D0F8002041EA02010160DD
:100180001D484FF08051016061B662B6184A13688D
:10019000012B04D04FF001031360144A1060124A7F
:1001A000116015484FF0805101607047EFF31082E5
:1001B00072B60F48016891B14FF0000101600B4821
:1001C000016829B1EFF3098121E9F00F00680160AE
:1001D000054909680968B1E8F00F81F3098882F3DD
:1001E00010884EF0040E70470C000020080000201C
:1001F0000400002020ED00E004ED00E00948804705
:1002000009480047FEE7FEE7FEE7FEE7FEE7FEE7F8
:10021000FEE7FEE7FEE7FEE704480549054A064B10
:1002200070470000B9020000C1000000B0050020C6
:10023000B0150020B0110020B011002070477047A9
:100240007047754600F02CF8AE46050069465346E7
:1002500020F00700854618B020B5FFF7DDFFBDE8A8
:1002600020404FF000064FF000074FF000084FF01D
:10027000000B21F00701AC46ACE8C009ACE8C009AE
:10028000ACE8C009ACE8C0098D46704710B504461B
:10029000AFF300802046BDE81040FFF758BF0000D4
:1002A000004870475005002001491820ABBEFEE70A
:1002B0002600020070470000034804490860044813
:1002C00004490860704700000000000008ED00E0ED
:1002D00040787D011400002000E0401E0028FCD181
:1002E000704700000DE00120064908706420FFF708
:1002F000F3FF0020034908706420FFF7EDFF00F0D2
:100300006FF8F0E7000000200DE0012006490870BA
:100310006420FFF7E1FF0020034908706420FFF725
:10032000DBFF00F05DF8F0E70100002008B500F009
:1003300079F84FF400700F4B00220F4900900F48DE
:1003400000F096F80D4914310D4800F041F84FF4D3
:1003500000700C4B00220C4900900C4800F088F80B
:100360000A4914310648083000F032F800F070F8FD
:10037000002008BD50000020E50200001800002009
:100380005004002050020020090300003400002027
:10039000F0B503460C461546281D20F007004038EE
:1003A0000146002203E0094E41F82260521C102A47
:1003B000F9D30C6200274F628F62CF620F634F63E5
:1003C0008B634FF08077CF63F0BD0000EFBEADDEF2
:1003D0004268116042684A600860416070470000EE
:1003E00070B50E48006814380D490968884208D174
:1003F0000B48056809488068A0F1140408480460A7
:1004000007E00748056805480068A0F1140404489F
:10041000046021462846FFF7B9FE70BD5004002055
:10042000100000200020014607E0074A02EBC1004F
:100430004060006000BF481C01462029F5DB002019
:10044000024A106070470000500400201000002095
:1004500010B505480068A0F1140404480460204663
:10046000FFF77CFE10BD00005004002010000020AB
:100470002DE9F04104460D4616461F46DDF818806A
:1004800004F114004060006000BF6560A660E76092
:10049000C4F81080D4E9033C63441A1FD4E9010175
:1004A000FFF776FF20600020BDE8F081CC0400005B
:1004B0000000002018000000FC000000E404000020
:1004C000180000209815000018010000000000002E
:1004D000000000000000000000000000000000001C
:0404E00040787D01E2
:04000005000000C136
:00000001FF
